{
  "_format": "hh-sol-artifact-1",
  "contractName": "Gen",
  "sourceName": "contracts/Gen.sol",
  "abi": [
    {
      "inputs": [
        {
          "internalType": "string",
          "name": "baseURI",
          "type": "string"
        }
      ],
      "stateMutability": "nonpayable",
      "type": "constructor"
    },
    {
      "anonymous": false,
      "inputs": [
        {
          "indexed": true,
          "internalType": "address",
          "name": "owner",
          "type": "address"
        },
        {
          "indexed": true,
          "internalType": "address",
          "name": "approved",
          "type": "address"
        },
        {
          "indexed": true,
          "internalType": "uint256",
          "name": "tokenId",
          "type": "uint256"
        }
      ],
      "name": "Approval",
      "type": "event"
    },
    {
      "anonymous": false,
      "inputs": [
        {
          "indexed": true,
          "internalType": "address",
          "name": "owner",
          "type": "address"
        },
        {
          "indexed": true,
          "internalType": "address",
          "name": "operator",
          "type": "address"
        },
        {
          "indexed": false,
          "internalType": "bool",
          "name": "approved",
          "type": "bool"
        }
      ],
      "name": "ApprovalForAll",
      "type": "event"
    },
    {
      "anonymous": false,
      "inputs": [
        {
          "indexed": false,
          "internalType": "uint256",
          "name": "tokenId",
          "type": "uint256"
        }
      ],
      "name": "GenMinted",
      "type": "event"
    },
    {
      "anonymous": false,
      "inputs": [
        {
          "indexed": false,
          "internalType": "uint256",
          "name": "tokenId",
          "type": "uint256"
        },
        {
          "indexed": false,
          "internalType": "string",
          "name": "newBaseURI",
          "type": "string"
        }
      ],
      "name": "GenUpdated",
      "type": "event"
    },
    {
      "anonymous": false,
      "inputs": [
        {
          "indexed": true,
          "internalType": "address",
          "name": "previousOwner",
          "type": "address"
        },
        {
          "indexed": true,
          "internalType": "address",
          "name": "newOwner",
          "type": "address"
        }
      ],
      "name": "OwnershipTransferred",
      "type": "event"
    },
    {
      "anonymous": false,
      "inputs": [
        {
          "indexed": true,
          "internalType": "address",
          "name": "from",
          "type": "address"
        },
        {
          "indexed": true,
          "internalType": "address",
          "name": "to",
          "type": "address"
        },
        {
          "indexed": true,
          "internalType": "uint256",
          "name": "tokenId",
          "type": "uint256"
        }
      ],
      "name": "Transfer",
      "type": "event"
    },
    {
      "inputs": [],
      "name": "MAX_GENS",
      "outputs": [
        {
          "internalType": "uint256",
          "name": "",
          "type": "uint256"
        }
      ],
      "stateMutability": "view",
      "type": "function"
    },
    {
      "inputs": [
        {
          "internalType": "address",
          "name": "to",
          "type": "address"
        },
        {
          "internalType": "uint256",
          "name": "tokenId",
          "type": "uint256"
        }
      ],
      "name": "approve",
      "outputs": [],
      "stateMutability": "nonpayable",
      "type": "function"
    },
    {
      "inputs": [],
      "name": "arcturiumContract",
      "outputs": [
        {
          "internalType": "address",
          "name": "",
          "type": "address"
        }
      ],
      "stateMutability": "view",
      "type": "function"
    },
    {
      "inputs": [
        {
          "internalType": "address",
          "name": "owner",
          "type": "address"
        }
      ],
      "name": "balanceOf",
      "outputs": [
        {
          "internalType": "uint256",
          "name": "",
          "type": "uint256"
        }
      ],
      "stateMutability": "view",
      "type": "function"
    },
    {
      "inputs": [
        {
          "internalType": "uint256[]",
          "name": "tokenIds",
          "type": "uint256[]"
        }
      ],
      "name": "bioUpgrade",
      "outputs": [],
      "stateMutability": "payable",
      "type": "function"
    },
    {
      "inputs": [],
      "name": "bioUpgradingIsActive",
      "outputs": [
        {
          "internalType": "bool",
          "name": "",
          "type": "bool"
        }
      ],
      "stateMutability": "view",
      "type": "function"
    },
    {
      "inputs": [],
      "name": "currentSeasonalCollectionURI",
      "outputs": [
        {
          "internalType": "string",
          "name": "",
          "type": "string"
        }
      ],
      "stateMutability": "view",
      "type": "function"
    },
    {
      "inputs": [],
      "name": "flipBioUpgradingState",
      "outputs": [],
      "stateMutability": "nonpayable",
      "type": "function"
    },
    {
      "inputs": [],
      "name": "flipMintingState",
      "outputs": [],
      "stateMutability": "nonpayable",
      "type": "function"
    },
    {
      "inputs": [],
      "name": "flipPublicState",
      "outputs": [],
      "stateMutability": "nonpayable",
      "type": "function"
    },
    {
      "inputs": [
        {
          "internalType": "uint256",
          "name": "tokenId",
          "type": "uint256"
        }
      ],
      "name": "getApproved",
      "outputs": [
        {
          "internalType": "address",
          "name": "",
          "type": "address"
        }
      ],
      "stateMutability": "view",
      "type": "function"
    },
    {
      "inputs": [
        {
          "internalType": "address",
          "name": "owner",
          "type": "address"
        },
        {
          "internalType": "address",
          "name": "operator",
          "type": "address"
        }
      ],
      "name": "isApprovedForAll",
      "outputs": [
        {
          "internalType": "bool",
          "name": "",
          "type": "bool"
        }
      ],
      "stateMutability": "view",
      "type": "function"
    },
    {
      "inputs": [
        {
          "internalType": "uint256",
          "name": "tokenId",
          "type": "uint256"
        }
      ],
      "name": "isMinted",
      "outputs": [
        {
          "internalType": "bool",
          "name": "",
          "type": "bool"
        }
      ],
      "stateMutability": "view",
      "type": "function"
    },
    {
      "inputs": [],
      "name": "maxPerMint",
      "outputs": [
        {
          "internalType": "uint256",
          "name": "",
          "type": "uint256"
        }
      ],
      "stateMutability": "view",
      "type": "function"
    },
    {
      "inputs": [
        {
          "internalType": "uint256[]",
          "name": "tokenIds",
          "type": "uint256[]"
        }
      ],
      "name": "mintGen",
      "outputs": [],
      "stateMutability": "nonpayable",
      "type": "function"
    },
    {
      "inputs": [],
      "name": "mintPrice",
      "outputs": [
        {
          "internalType": "uint256",
          "name": "",
          "type": "uint256"
        }
      ],
      "stateMutability": "view",
      "type": "function"
    },
    {
      "inputs": [
        {
          "internalType": "uint256[]",
          "name": "tokenIds",
          "type": "uint256[]"
        }
      ],
      "name": "mintPublicGen",
      "outputs": [],
      "stateMutability": "payable",
      "type": "function"
    },
    {
      "inputs": [],
      "name": "mintingIsActive",
      "outputs": [
        {
          "internalType": "bool",
          "name": "",
          "type": "bool"
        }
      ],
      "stateMutability": "view",
      "type": "function"
    },
    {
      "inputs": [],
      "name": "name",
      "outputs": [
        {
          "internalType": "string",
          "name": "",
          "type": "string"
        }
      ],
      "stateMutability": "view",
      "type": "function"
    },
    {
      "inputs": [],
      "name": "owner",
      "outputs": [
        {
          "internalType": "address",
          "name": "",
          "type": "address"
        }
      ],
      "stateMutability": "view",
      "type": "function"
    },
    {
      "inputs": [
        {
          "internalType": "uint256",
          "name": "tokenId",
          "type": "uint256"
        }
      ],
      "name": "ownerOf",
      "outputs": [
        {
          "internalType": "address",
          "name": "",
          "type": "address"
        }
      ],
      "stateMutability": "view",
      "type": "function"
    },
    {
      "inputs": [],
      "name": "publicIsActive",
      "outputs": [
        {
          "internalType": "bool",
          "name": "",
          "type": "bool"
        }
      ],
      "stateMutability": "view",
      "type": "function"
    },
    {
      "inputs": [],
      "name": "renounceOwnership",
      "outputs": [],
      "stateMutability": "nonpayable",
      "type": "function"
    },
    {
      "inputs": [
        {
          "internalType": "address",
          "name": "from",
          "type": "address"
        },
        {
          "internalType": "address",
          "name": "to",
          "type": "address"
        },
        {
          "internalType": "uint256",
          "name": "tokenId",
          "type": "uint256"
        }
      ],
      "name": "safeTransferFrom",
      "outputs": [],
      "stateMutability": "nonpayable",
      "type": "function"
    },
    {
      "inputs": [
        {
          "internalType": "address",
          "name": "from",
          "type": "address"
        },
        {
          "internalType": "address",
          "name": "to",
          "type": "address"
        },
        {
          "internalType": "uint256",
          "name": "tokenId",
          "type": "uint256"
        },
        {
          "internalType": "bytes",
          "name": "data",
          "type": "bytes"
        }
      ],
      "name": "safeTransferFrom",
      "outputs": [],
      "stateMutability": "nonpayable",
      "type": "function"
    },
    {
      "inputs": [
        {
          "internalType": "address",
          "name": "operator",
          "type": "address"
        },
        {
          "internalType": "bool",
          "name": "approved",
          "type": "bool"
        }
      ],
      "name": "setApprovalForAll",
      "outputs": [],
      "stateMutability": "nonpayable",
      "type": "function"
    },
    {
      "inputs": [
        {
          "internalType": "string",
          "name": "newuri",
          "type": "string"
        }
      ],
      "name": "setCurrentCollectionBaseURI",
      "outputs": [],
      "stateMutability": "nonpayable",
      "type": "function"
    },
    {
      "inputs": [
        {
          "internalType": "uint256",
          "name": "newPrice",
          "type": "uint256"
        }
      ],
      "name": "setMintCost",
      "outputs": [],
      "stateMutability": "nonpayable",
      "type": "function"
    },
    {
      "inputs": [
        {
          "internalType": "uint256",
          "name": "newMax",
          "type": "uint256"
        }
      ],
      "name": "setMintMax",
      "outputs": [],
      "stateMutability": "nonpayable",
      "type": "function"
    },
    {
      "inputs": [
        {
          "internalType": "bytes4",
          "name": "interfaceId",
          "type": "bytes4"
        }
      ],
      "name": "supportsInterface",
      "outputs": [
        {
          "internalType": "bool",
          "name": "",
          "type": "bool"
        }
      ],
      "stateMutability": "view",
      "type": "function"
    },
    {
      "inputs": [],
      "name": "symbol",
      "outputs": [
        {
          "internalType": "string",
          "name": "",
          "type": "string"
        }
      ],
      "stateMutability": "view",
      "type": "function"
    },
    {
      "inputs": [
        {
          "internalType": "uint256",
          "name": "index",
          "type": "uint256"
        }
      ],
      "name": "tokenByIndex",
      "outputs": [
        {
          "internalType": "uint256",
          "name": "",
          "type": "uint256"
        }
      ],
      "stateMutability": "view",
      "type": "function"
    },
    {
      "inputs": [
        {
          "internalType": "address",
          "name": "owner",
          "type": "address"
        },
        {
          "internalType": "uint256",
          "name": "index",
          "type": "uint256"
        }
      ],
      "name": "tokenOfOwnerByIndex",
      "outputs": [
        {
          "internalType": "uint256",
          "name": "",
          "type": "uint256"
        }
      ],
      "stateMutability": "view",
      "type": "function"
    },
    {
      "inputs": [
        {
          "internalType": "uint256",
          "name": "tokenId",
          "type": "uint256"
        }
      ],
      "name": "tokenURI",
      "outputs": [
        {
          "internalType": "string",
          "name": "",
          "type": "string"
        }
      ],
      "stateMutability": "view",
      "type": "function"
    },
    {
      "inputs": [],
      "name": "totalSupply",
      "outputs": [
        {
          "internalType": "uint256",
          "name": "",
          "type": "uint256"
        }
      ],
      "stateMutability": "view",
      "type": "function"
    },
    {
      "inputs": [
        {
          "internalType": "address",
          "name": "from",
          "type": "address"
        },
        {
          "internalType": "address",
          "name": "to",
          "type": "address"
        },
        {
          "internalType": "uint256",
          "name": "tokenId",
          "type": "uint256"
        }
      ],
      "name": "transferFrom",
      "outputs": [],
      "stateMutability": "nonpayable",
      "type": "function"
    },
    {
      "inputs": [
        {
          "internalType": "address",
          "name": "newOwner",
          "type": "address"
        }
      ],
      "name": "transferOwnership",
      "outputs": [],
      "stateMutability": "nonpayable",
      "type": "function"
    },
    {
      "inputs": [],
      "name": "withdraw",
      "outputs": [],
      "stateMutability": "nonpayable",
      "type": "function"
    }
  ],
  "bytecode": "0x6080604052600a600b556000600c60006101000a81548160ff0219169083151502179055506000600c60016101000a81548160ff0219169083151502179055506000600c60026101000a81548160ff0219169083151502179055506000600e5573f710f3e8be1180a3a4863330d5009278e799d4a8601160006101000a81548173ffffffffffffffffffffffffffffffffffffffff021916908373ffffffffffffffffffffffffffffffffffffffff160217905550348015620000c157600080fd5b50604051620055e9380380620055e98339818101604052810190620000e79190620003b7565b6040518060400160405280600381526020017f47656e00000000000000000000000000000000000000000000000000000000008152506040518060400160405280600381526020017f47656e000000000000000000000000000000000000000000000000000000000081525081600090805190602001906200016b92919062000295565b5080600190805190602001906200018492919062000295565b505050620001a76200019b620001c760201b60201c565b620001cf60201b60201c565b80600d9080519060200190620001bf92919062000295565b50506200056c565b600033905090565b6000600a60009054906101000a900473ffffffffffffffffffffffffffffffffffffffff16905081600a60006101000a81548173ffffffffffffffffffffffffffffffffffffffff021916908373ffffffffffffffffffffffffffffffffffffffff1602179055508173ffffffffffffffffffffffffffffffffffffffff168173ffffffffffffffffffffffffffffffffffffffff167f8be0079c531659141344cd1fd0a4f28419497f9722a3daafe3b4186f6b6457e060405160405180910390a35050565b828054620002a39062000491565b90600052602060002090601f016020900481019282620002c7576000855562000313565b82601f10620002e257805160ff191683800117855562000313565b8280016001018555821562000313579182015b8281111562000312578251825591602001919060010190620002f5565b5b50905062000322919062000326565b5090565b5b808211156200034157600081600090555060010162000327565b5090565b60006200035c620003568462000425565b620003fc565b9050828152602081018484840111156200037557600080fd5b620003828482856200045b565b509392505050565b600082601f8301126200039c57600080fd5b8151620003ae84826020860162000345565b91505092915050565b600060208284031215620003ca57600080fd5b600082015167ffffffffffffffff811115620003e557600080fd5b620003f3848285016200038a565b91505092915050565b6000620004086200041b565b9050620004168282620004c7565b919050565b6000604051905090565b600067ffffffffffffffff8211156200044357620004426200052c565b5b6200044e826200055b565b9050602081019050919050565b60005b838110156200047b5780820151818401526020810190506200045e565b838111156200048b576000848401525b50505050565b60006002820490506001821680620004aa57607f821691505b60208210811415620004c157620004c0620004fd565b5b50919050565b620004d2826200055b565b810181811067ffffffffffffffff82111715620004f457620004f36200052c565b5b80604052505050565b7f4e487b7100000000000000000000000000000000000000000000000000000000600052602260045260246000fd5b7f4e487b7100000000000000000000000000000000000000000000000000000000600052604160045260246000fd5b6000601f19601f8301169050919050565b61506d806200057c6000396000f3fe6080604052600436106102255760003560e01c806370a0823111610123578063a22cb465116100ab578063e985e9c51161006f578063e985e9c5146107c5578063ec9b08f114610802578063f2fde38b1461082d578063f655ff2214610856578063f7eb17cc1461086d57610225565b8063a22cb465146106f1578063afc3cb491461071a578063b88d4fde14610743578063c87b56dd1461076c578063d99bcbd8146107a957610225565b806387683a47116100f257806387683a4714610630578063882b1808146106595780638da5cb5b1461067057806395d89b411461069b578063a216a49d146106c657610225565b806370a082311461059c578063715018a6146105d95780637efd1a68146105f05780638545f4ea1461060757610225565b806333c41a90116101b15780634f6ccce7116101755780634f6ccce7146104a3578063507e094f146104e05780635a504e741461050b5780636352211e146105345780636817c76c1461057157610225565b806333c41a90146103d057806333cc4c291461040d5780633ccfd60b1461043857806342842e0e1461044f5780634728b9f41461047857610225565b8063095ea7b3116101f8578063095ea7b3146102fa57806318160ddd146103235780631e2a23c01461034e57806323b872dd1461036a5780632f745c591461039357610225565b806301ffc9a71461022a578063033a02d61461026757806306fdde0314610292578063081812fc146102bd575b600080fd5b34801561023657600080fd5b50610251600480360381019061024c919061386b565b610898565b60405161025e9190613f5f565b60405180910390f35b34801561027357600080fd5b5061027c6108aa565b6040516102899190613f5f565b60405180910390f35b34801561029e57600080fd5b506102a76108bd565b6040516102b49190613f7a565b60405180910390f35b3480156102c957600080fd5b506102e460048036038101906102df91906138fe565b61094f565b6040516102f19190613ef8565b60405180910390f35b34801561030657600080fd5b50610321600480360381019061031c91906137ee565b610995565b005b34801561032f57600080fd5b50610338610aad565b604051610345919061433c565b60405180910390f35b6103686004803603810190610363919061382a565b610aba565b005b34801561037657600080fd5b50610391600480360381019061038c91906136e8565b610e16565b005b34801561039f57600080fd5b506103ba60048036038101906103b591906137ee565b610e76565b6040516103c7919061433c565b60405180910390f35b3480156103dc57600080fd5b506103f760048036038101906103f291906138fe565b610f1b565b6040516104049190613f5f565b60405180910390f35b34801561041957600080fd5b50610422610f2d565b60405161042f9190613f7a565b60405180910390f35b34801561044457600080fd5b5061044d610fbb565b005b34801561045b57600080fd5b50610476600480360381019061047191906136e8565b611018565b005b34801561048457600080fd5b5061048d611038565b60405161049a9190613f5f565b60405180910390f35b3480156104af57600080fd5b506104ca60048036038101906104c591906138fe565b61104b565b6040516104d7919061433c565b60405180910390f35b3480156104ec57600080fd5b506104f56110e2565b604051610502919061433c565b60405180910390f35b34801561051757600080fd5b50610532600480360381019061052d91906138bd565b6110e8565b005b34801561054057600080fd5b5061055b600480360381019061055691906138fe565b61110a565b6040516105689190613ef8565b60405180910390f35b34801561057d57600080fd5b506105866111bc565b604051610593919061433c565b60405180910390f35b3480156105a857600080fd5b506105c360048036038101906105be919061365a565b6111c2565b6040516105d0919061433c565b60405180910390f35b3480156105e557600080fd5b506105ee61127a565b005b3480156105fc57600080fd5b5061060561128e565b005b34801561061357600080fd5b5061062e600480360381019061062991906138fe565b6112c2565b005b34801561063c57600080fd5b506106576004803603810190610652919061382a565b6112d4565b005b34801561066557600080fd5b5061066e6116c5565b005b34801561067c57600080fd5b506106856116f9565b6040516106929190613ef8565b60405180910390f35b3480156106a757600080fd5b506106b0611723565b6040516106bd9190613f7a565b60405180910390f35b3480156106d257600080fd5b506106db6117b5565b6040516106e89190613f5f565b60405180910390f35b3480156106fd57600080fd5b50610718600480360381019061071391906137b2565b6117c8565b005b34801561072657600080fd5b50610741600480360381019061073c91906138fe565b6117de565b005b34801561074f57600080fd5b5061076a60048036038101906107659190613737565b6117f0565b005b34801561077857600080fd5b50610793600480360381019061078e91906138fe565b611852565b6040516107a09190613f7a565b60405180910390f35b6107c360048036038101906107be919061382a565b61196e565b005b3480156107d157600080fd5b506107ec60048036038101906107e791906136ac565b611c4a565b6040516107f99190613f5f565b60405180910390f35b34801561080e57600080fd5b50610817611cde565b6040516108249190613ef8565b60405180910390f35b34801561083957600080fd5b50610854600480360381019061084f919061365a565b611d04565b005b34801561086257600080fd5b5061086b611d88565b005b34801561087957600080fd5b50610882611dbc565b60405161088f919061433c565b60405180910390f35b60006108a382611dc1565b9050919050565b600c60029054906101000a900460ff1681565b6060600080546108cc90614668565b80601f01602080910402602001604051908101604052809291908181526020018280546108f890614668565b80156109455780601f1061091a57610100808354040283529160200191610945565b820191906000526020600020905b81548152906001019060200180831161092857829003601f168201915b5050505050905090565b600061095a82611e3b565b6004600083815260200190815260200160002060009054906101000a900473ffffffffffffffffffffffffffffffffffffffff169050919050565b60006109a08261110a565b90508073ffffffffffffffffffffffffffffffffffffffff168373ffffffffffffffffffffffffffffffffffffffff161415610a11576040517f08c379a0000000000000000000000000000000000000000000000000000000008152600401610a089061427c565b60405180910390fd5b8073ffffffffffffffffffffffffffffffffffffffff16610a30611e86565b73ffffffffffffffffffffffffffffffffffffffff161480610a5f5750610a5e81610a59611e86565b611c4a565b5b610a9e576040517f08c379a0000000000000000000000000000000000000000000000000000000008152600401610a95906141dc565b60405180910390fd5b610aa88383611e8e565b505050565b6000600880549050905090565b600c60019054906101000a900460ff16610b09576040517f08c379a0000000000000000000000000000000000000000000000000000000008152600401610b009061405c565b60405180910390fd5b34600e548251610b199190614524565b14610b59576040517f08c379a0000000000000000000000000000000000000000000000000000000008152600401610b509061415c565b60405180910390fd5b60005b8151811015610c88573373ffffffffffffffffffffffffffffffffffffffff16610bc5838381518110610bb8577f4e487b7100000000000000000000000000000000000000000000000000000000600052603260045260246000fd5b602002602001015161110a565b73ffffffffffffffffffffffffffffffffffffffff16141580610c2e5750610c2c828281518110610c1f577f4e487b7100000000000000000000000000000000000000000000000000000000600052603260045260246000fd5b6020026020010151611f47565b155b15610c75576000610c74576040517f08c379a0000000000000000000000000000000000000000000000000000000008152600401610c6b906142fc565b60405180910390fd5b5b8080610c80906146cb565b915050610b5c565b5060005b8151811015610e1257600a828281518110610cd0577f4e487b7100000000000000000000000000000000000000000000000000000000600052603260045260246000fd5b602002602001015110610d18576040517f08c379a0000000000000000000000000000000000000000000000000000000008152600401610d0f9061413c565b60405180910390fd5b600d60106000848481518110610d57577f4e487b7100000000000000000000000000000000000000000000000000000000600052603260045260246000fd5b60200260200101518152602001908152602001600020908054610d7990614668565b610d84929190613346565b507f266bc8906175770d5acdb15c764e656bc33c059f4339d709a51e95be76c6bc76828281518110610ddf577f4e487b7100000000000000000000000000000000000000000000000000000000600052603260045260246000fd5b6020026020010151600d604051610df7929190614357565b60405180910390a18080610e0a906146cb565b915050610c8c565b5050565b610e27610e21611e86565b82611fb3565b610e66576040517f08c379a0000000000000000000000000000000000000000000000000000000008152600401610e5d906142dc565b60405180910390fd5b610e71838383612048565b505050565b6000610e81836111c2565b8210610ec2576040517f08c379a0000000000000000000000000000000000000000000000000000000008152600401610eb990613fbc565b60405180910390fd5b600660008473ffffffffffffffffffffffffffffffffffffffff1673ffffffffffffffffffffffffffffffffffffffff168152602001908152602001600020600083815260200190815260200160002054905092915050565b6000610f2682611f47565b9050919050565b600d8054610f3a90614668565b80601f0160208091040260200160405190810160405280929190818152602001828054610f6690614668565b8015610fb35780601f10610f8857610100808354040283529160200191610fb3565b820191906000526020600020905b815481529060010190602001808311610f9657829003601f168201915b505050505081565b610fc36122af565b60004711611006576040517f08c379a0000000000000000000000000000000000000000000000000000000008152600401610ffd906140fc565b60405180910390fd5b6000479050611015338261232d565b50565b611033838383604051806020016040528060008152506117f0565b505050565b600c60009054906101000a900460ff1681565b6000611055610aad565b8210611096576040517f08c379a000000000000000000000000000000000000000000000000000000000815260040161108d906142bc565b60405180910390fd5b600882815481106110d0577f4e487b7100000000000000000000000000000000000000000000000000000000600052603260045260246000fd5b90600052602060002001549050919050565b600b5481565b6110f06122af565b80600d90805190602001906111069291906133d3565b5050565b6000806002600084815260200190815260200160002060009054906101000a900473ffffffffffffffffffffffffffffffffffffffff169050600073ffffffffffffffffffffffffffffffffffffffff168173ffffffffffffffffffffffffffffffffffffffff1614156111b3576040517f08c379a00000000000000000000000000000000000000000000000000000000081526004016111aa9061425c565b60405180910390fd5b80915050919050565b600e5481565b60008073ffffffffffffffffffffffffffffffffffffffff168273ffffffffffffffffffffffffffffffffffffffff161415611233576040517f08c379a000000000000000000000000000000000000000000000000000000000815260040161122a906141bc565b60405180910390fd5b600360008373ffffffffffffffffffffffffffffffffffffffff1673ffffffffffffffffffffffffffffffffffffffff168152602001908152602001600020549050919050565b6112826122af565b61128c6000612421565b565b6112966122af565b600c60019054906101000a900460ff1615600c60016101000a81548160ff021916908315150217905550565b6112ca6122af565b80600e8190555050565b600b548151111561131a576040517f08c379a00000000000000000000000000000000000000000000000000000000081526004016113119061411c565b60405180910390fd5b600c60009054906101000a900460ff16611369576040517f08c379a00000000000000000000000000000000000000000000000000000000081526004016113609061407c565b60405180910390fd5b600a8151611375610aad565b61137f919061449d565b11156113c0576040517f08c379a00000000000000000000000000000000000000000000000000000000081526004016113b79061409c565b60405180910390fd5b6000601160009054906101000a900473ffffffffffffffffffffffffffffffffffffffff16905060005b82518110156115d3573373ffffffffffffffffffffffffffffffffffffffff168273ffffffffffffffffffffffffffffffffffffffff16636352211e85848151811061145f577f4e487b7100000000000000000000000000000000000000000000000000000000600052603260045260246000fd5b60200260200101516040518263ffffffff1660e01b8152600401611483919061433c565b60206040518083038186803b15801561149b57600080fd5b505afa1580156114af573d6000803e3d6000fd5b505050506040513d601f19601f820116820180604052508101906114d39190613683565b73ffffffffffffffffffffffffffffffffffffffff161461153057600061152f576040517f08c379a000000000000000000000000000000000000000000000000000000000815260040161152690613f9c565b60405180910390fd5b5b61157983828151811061156c577f4e487b7100000000000000000000000000000000000000000000000000000000600052603260045260246000fd5b6020026020010151611f47565b156115c05760006115bf576040517f08c379a00000000000000000000000000000000000000000000000000000000081526004016115b69061429c565b60405180910390fd5b5b80806115cb906146cb565b9150506113ea565b5060005b82518110156116c057600a83828151811061161b577f4e487b7100000000000000000000000000000000000000000000000000000000600052603260045260246000fd5b602002602001015110611663576040517f08c379a000000000000000000000000000000000000000000000000000000000815260040161165a9061413c565b60405180910390fd5b6116ad338483815181106116a0577f4e487b7100000000000000000000000000000000000000000000000000000000600052603260045260246000fd5b60200260200101516124e7565b80806116b8906146cb565b9150506115d7565b505050565b6116cd6122af565b600c60029054906101000a900460ff1615600c60026101000a81548160ff021916908315150217905550565b6000600a60009054906101000a900473ffffffffffffffffffffffffffffffffffffffff16905090565b60606001805461173290614668565b80601f016020809104026020016040519081016040528092919081815260200182805461175e90614668565b80156117ab5780601f10611780576101008083540402835291602001916117ab565b820191906000526020600020905b81548152906001019060200180831161178e57829003601f168201915b5050505050905090565b600c60019054906101000a900460ff1681565b6117da6117d3611e86565b83836125d1565b5050565b6117e66122af565b80600b8190555050565b6118016117fb611e86565b83611fb3565b611840576040517f08c379a0000000000000000000000000000000000000000000000000000000008152600401611837906142dc565b60405180910390fd5b61184c8484848461273e565b50505050565b606061185d82611f47565b61189c576040517f08c379a00000000000000000000000000000000000000000000000000000000081526004016118939061423c565b60405180910390fd5b60006010600084815260200190815260200160002080546118bc90614668565b80601f01602080910402602001604051908101604052809291908181526020018280546118e890614668565b80156119355780601f1061190a57610100808354040283529160200191611935565b820191906000526020600020905b81548152906001019060200180831161191857829003601f168201915b50505050509050806119468461279a565b604051602001611957929190613eb4565b604051602081830303815290604052915050919050565b600b54815111156119b4576040517f08c379a00000000000000000000000000000000000000000000000000000000081526004016119ab9061411c565b60405180910390fd5b600c60029054906101000a900460ff16611a03576040517f08c379a00000000000000000000000000000000000000000000000000000000081526004016119fa9061431c565b60405180910390fd5b600a8151611a0f610aad565b611a19919061449d565b1115611a5a576040517f08c379a0000000000000000000000000000000000000000000000000000000008152600401611a519061409c565b60405180910390fd5b34600e548251611a6a9190614524565b14611aaa576040517f08c379a0000000000000000000000000000000000000000000000000000000008152600401611aa19061415c565b60405180910390fd5b60005b8151811015611b5957611aff828281518110611af2577f4e487b7100000000000000000000000000000000000000000000000000000000600052603260045260246000fd5b6020026020010151611f47565b15611b46576000611b45576040517f08c379a0000000000000000000000000000000000000000000000000000000008152600401611b3c9061429c565b60405180910390fd5b5b8080611b51906146cb565b915050611aad565b5060005b8151811015611c4657600a828281518110611ba1577f4e487b7100000000000000000000000000000000000000000000000000000000600052603260045260246000fd5b602002602001015110611be9576040517f08c379a0000000000000000000000000000000000000000000000000000000008152600401611be09061413c565b60405180910390fd5b611c3333838381518110611c26577f4e487b7100000000000000000000000000000000000000000000000000000000600052603260045260246000fd5b60200260200101516124e7565b8080611c3e906146cb565b915050611b5d565b5050565b6000600560008473ffffffffffffffffffffffffffffffffffffffff1673ffffffffffffffffffffffffffffffffffffffff16815260200190815260200160002060008373ffffffffffffffffffffffffffffffffffffffff1673ffffffffffffffffffffffffffffffffffffffff16815260200190815260200160002060009054906101000a900460ff16905092915050565b601160009054906101000a900473ffffffffffffffffffffffffffffffffffffffff1681565b611d0c6122af565b600073ffffffffffffffffffffffffffffffffffffffff168173ffffffffffffffffffffffffffffffffffffffff161415611d7c576040517f08c379a0000000000000000000000000000000000000000000000000000000008152600401611d7390613ffc565b60405180910390fd5b611d8581612421565b50565b611d906122af565b600c60009054906101000a900460ff1615600c60006101000a81548160ff021916908315150217905550565b600a81565b60007f780e9d63000000000000000000000000000000000000000000000000000000007bffffffffffffffffffffffffffffffffffffffffffffffffffffffff1916827bffffffffffffffffffffffffffffffffffffffffffffffffffffffff19161480611e345750611e3382612947565b5b9050919050565b611e4481611f47565b611e83576040517f08c379a0000000000000000000000000000000000000000000000000000000008152600401611e7a9061425c565b60405180910390fd5b50565b600033905090565b816004600083815260200190815260200160002060006101000a81548173ffffffffffffffffffffffffffffffffffffffff021916908373ffffffffffffffffffffffffffffffffffffffff160217905550808273ffffffffffffffffffffffffffffffffffffffff16611f018361110a565b73ffffffffffffffffffffffffffffffffffffffff167f8c5be1e5ebec7d5bd14f71427d1e84f3dd0314c0f7b2291e5b200ac8c7c3b92560405160405180910390a45050565b60008073ffffffffffffffffffffffffffffffffffffffff166002600084815260200190815260200160002060009054906101000a900473ffffffffffffffffffffffffffffffffffffffff1673ffffffffffffffffffffffffffffffffffffffff1614159050919050565b600080611fbf8361110a565b90508073ffffffffffffffffffffffffffffffffffffffff168473ffffffffffffffffffffffffffffffffffffffff16148061200157506120008185611c4a565b5b8061203f57508373ffffffffffffffffffffffffffffffffffffffff166120278461094f565b73ffffffffffffffffffffffffffffffffffffffff16145b91505092915050565b8273ffffffffffffffffffffffffffffffffffffffff166120688261110a565b73ffffffffffffffffffffffffffffffffffffffff16146120be576040517f08c379a00000000000000000000000000000000000000000000000000000000081526004016120b59061401c565b60405180910390fd5b600073ffffffffffffffffffffffffffffffffffffffff168273ffffffffffffffffffffffffffffffffffffffff16141561212e576040517f08c379a0000000000000000000000000000000000000000000000000000000008152600401612125906140bc565b60405180910390fd5b612139838383612a29565b612144600082611e8e565b6001600360008573ffffffffffffffffffffffffffffffffffffffff1673ffffffffffffffffffffffffffffffffffffffff1681526020019081526020016000206000828254612194919061457e565b925050819055506001600360008473ffffffffffffffffffffffffffffffffffffffff1673ffffffffffffffffffffffffffffffffffffffff16815260200190815260200160002060008282546121eb919061449d565b92505081905550816002600083815260200190815260200160002060006101000a81548173ffffffffffffffffffffffffffffffffffffffff021916908373ffffffffffffffffffffffffffffffffffffffff160217905550808273ffffffffffffffffffffffffffffffffffffffff168473ffffffffffffffffffffffffffffffffffffffff167fddf252ad1be2c89b69c2b068fc378daa952ba7f163c4a11628f55a4df523b3ef60405160405180910390a46122aa838383612a39565b505050565b6122b7611e86565b73ffffffffffffffffffffffffffffffffffffffff166122d56116f9565b73ffffffffffffffffffffffffffffffffffffffff161461232b576040517f08c379a00000000000000000000000000000000000000000000000000000000081526004016123229061421c565b60405180910390fd5b565b80471015612370576040517f08c379a00000000000000000000000000000000000000000000000000000000081526004016123679061419c565b60405180910390fd5b60008273ffffffffffffffffffffffffffffffffffffffff168260405161239690613ee3565b60006040518083038185875af1925050503d80600081146123d3576040519150601f19603f3d011682016040523d82523d6000602084013e6123d8565b606091505b505090508061241c576040517f08c379a00000000000000000000000000000000000000000000000000000000081526004016124139061417c565b60405180910390fd5b505050565b6000600a60009054906101000a900473ffffffffffffffffffffffffffffffffffffffff16905081600a60006101000a81548173ffffffffffffffffffffffffffffffffffffffff021916908373ffffffffffffffffffffffffffffffffffffffff1602179055508173ffffffffffffffffffffffffffffffffffffffff168173ffffffffffffffffffffffffffffffffffffffff167f8be0079c531659141344cd1fd0a4f28419497f9722a3daafe3b4186f6b6457e060405160405180910390a35050565b600a811080156124fd57506124fb81611f47565b155b801561252d575060001515600f600083815260200190815260200160002060009054906101000a900460ff161515145b156125cd5761253c8282612a3e565b6001600f600083815260200190815260200160002060006101000a81548160ff021916908315150217905550600d6010600083815260200190815260200160002090805461258990614668565b612594929190613346565b507f6be8115b43ea74bc93c32e35adc4fa01662a2a5eeac8b816d75a3980a8423904816040516125c4919061433c565b60405180910390a15b5050565b8173ffffffffffffffffffffffffffffffffffffffff168373ffffffffffffffffffffffffffffffffffffffff161415612640576040517f08c379a0000000000000000000000000000000000000000000000000000000008152600401612637906140dc565b60405180910390fd5b80600560008573ffffffffffffffffffffffffffffffffffffffff1673ffffffffffffffffffffffffffffffffffffffff16815260200190815260200160002060008473ffffffffffffffffffffffffffffffffffffffff1673ffffffffffffffffffffffffffffffffffffffff16815260200190815260200160002060006101000a81548160ff0219169083151502179055508173ffffffffffffffffffffffffffffffffffffffff168373ffffffffffffffffffffffffffffffffffffffff167f17307eab39ab6107e8899845ad3d59bd9653f200f220920489ca2b5937696c31836040516127319190613f5f565b60405180910390a3505050565b612749848484612048565b61275584848484612a5c565b612794576040517f08c379a000000000000000000000000000000000000000000000000000000000815260040161278b90613fdc565b60405180910390fd5b50505050565b606060008214156127e2576040518060400160405280600181526020017f30000000000000000000000000000000000000000000000000000000000000008152509050612942565b600082905060005b600082146128145780806127fd906146cb565b915050600a8261280d91906144f3565b91506127ea565b60008167ffffffffffffffff811115612856577f4e487b7100000000000000000000000000000000000000000000000000000000600052604160045260246000fd5b6040519080825280601f01601f1916602001820160405280156128885781602001600182028036833780820191505090505b5090505b6000851461293b576001826128a1919061457e565b9150600a856128b09190614714565b60306128bc919061449d565b60f81b8183815181106128f8577f4e487b7100000000000000000000000000000000000000000000000000000000600052603260045260246000fd5b60200101907effffffffffffffffffffffffffffffffffffffffffffffffffffffffffffff1916908160001a905350600a8561293491906144f3565b945061288c565b8093505050505b919050565b60007f80ac58cd000000000000000000000000000000000000000000000000000000007bffffffffffffffffffffffffffffffffffffffffffffffffffffffff1916827bffffffffffffffffffffffffffffffffffffffffffffffffffffffff19161480612a1257507f5b5e139f000000000000000000000000000000000000000000000000000000007bffffffffffffffffffffffffffffffffffffffffffffffffffffffff1916827bffffffffffffffffffffffffffffffffffffffffffffffffffffffff1916145b80612a225750612a2182612bf3565b5b9050919050565b612a34838383612c5d565b505050565b505050565b612a58828260405180602001604052806000815250612d71565b5050565b6000612a7d8473ffffffffffffffffffffffffffffffffffffffff16612dcc565b15612be6578373ffffffffffffffffffffffffffffffffffffffff1663150b7a02612aa6611e86565b8786866040518563ffffffff1660e01b8152600401612ac89493929190613f13565b602060405180830381600087803b158015612ae257600080fd5b505af1925050508015612b1357506040513d601f19601f82011682018060405250810190612b109190613894565b60015b612b96573d8060008114612b43576040519150601f19603f3d011682016040523d82523d6000602084013e612b48565b606091505b50600081511415612b8e576040517f08c379a0000000000000000000000000000000000000000000000000000000008152600401612b8590613fdc565b60405180910390fd5b805181602001fd5b63150b7a0260e01b7bffffffffffffffffffffffffffffffffffffffffffffffffffffffff1916817bffffffffffffffffffffffffffffffffffffffffffffffffffffffff191614915050612beb565b600190505b949350505050565b60007f01ffc9a7000000000000000000000000000000000000000000000000000000007bffffffffffffffffffffffffffffffffffffffffffffffffffffffff1916827bffffffffffffffffffffffffffffffffffffffffffffffffffffffff1916149050919050565b612c68838383612def565b600073ffffffffffffffffffffffffffffffffffffffff168373ffffffffffffffffffffffffffffffffffffffff161415612cab57612ca681612df4565b612cea565b8173ffffffffffffffffffffffffffffffffffffffff168373ffffffffffffffffffffffffffffffffffffffff1614612ce957612ce88382612e3d565b5b5b600073ffffffffffffffffffffffffffffffffffffffff168273ffffffffffffffffffffffffffffffffffffffff161415612d2d57612d2881612faa565b612d6c565b8273ffffffffffffffffffffffffffffffffffffffff168273ffffffffffffffffffffffffffffffffffffffff1614612d6b57612d6a82826130ed565b5b5b505050565b612d7b838361316c565b612d886000848484612a5c565b612dc7576040517f08c379a0000000000000000000000000000000000000000000000000000000008152600401612dbe90613fdc565b60405180910390fd5b505050565b6000808273ffffffffffffffffffffffffffffffffffffffff163b119050919050565b505050565b6008805490506009600083815260200190815260200160002081905550600881908060018154018082558091505060019003906000526020600020016000909190919091505550565b60006001612e4a846111c2565b612e54919061457e565b9050600060076000848152602001908152602001600020549050818114612f39576000600660008673ffffffffffffffffffffffffffffffffffffffff1673ffffffffffffffffffffffffffffffffffffffff168152602001908152602001600020600084815260200190815260200160002054905080600660008773ffffffffffffffffffffffffffffffffffffffff1673ffffffffffffffffffffffffffffffffffffffff168152602001908152602001600020600084815260200190815260200160002081905550816007600083815260200190815260200160002081905550505b6007600084815260200190815260200160002060009055600660008573ffffffffffffffffffffffffffffffffffffffff1673ffffffffffffffffffffffffffffffffffffffff16815260200190815260200160002060008381526020019081526020016000206000905550505050565b60006001600880549050612fbe919061457e565b9050600060096000848152602001908152602001600020549050600060088381548110613014577f4e487b7100000000000000000000000000000000000000000000000000000000600052603260045260246000fd5b90600052602060002001549050806008838154811061305c577f4e487b7100000000000000000000000000000000000000000000000000000000600052603260045260246000fd5b9060005260206000200181905550816009600083815260200190815260200160002081905550600960008581526020019081526020016000206000905560088054806130d1577f4e487b7100000000000000000000000000000000000000000000000000000000600052603160045260246000fd5b6001900381819060005260206000200160009055905550505050565b60006130f8836111c2565b905081600660008573ffffffffffffffffffffffffffffffffffffffff1673ffffffffffffffffffffffffffffffffffffffff168152602001908152602001600020600083815260200190815260200160002081905550806007600084815260200190815260200160002081905550505050565b600073ffffffffffffffffffffffffffffffffffffffff168273ffffffffffffffffffffffffffffffffffffffff1614156131dc576040517f08c379a00000000000000000000000000000000000000000000000000000000081526004016131d3906141fc565b60405180910390fd5b6131e581611f47565b15613225576040517f08c379a000000000000000000000000000000000000000000000000000000000815260040161321c9061403c565b60405180910390fd5b61323160008383612a29565b6001600360008473ffffffffffffffffffffffffffffffffffffffff1673ffffffffffffffffffffffffffffffffffffffff1681526020019081526020016000206000828254613281919061449d565b92505081905550816002600083815260200190815260200160002060006101000a81548173ffffffffffffffffffffffffffffffffffffffff021916908373ffffffffffffffffffffffffffffffffffffffff160217905550808273ffffffffffffffffffffffffffffffffffffffff16600073ffffffffffffffffffffffffffffffffffffffff167fddf252ad1be2c89b69c2b068fc378daa952ba7f163c4a11628f55a4df523b3ef60405160405180910390a461334260008383612a39565b5050565b82805461335290614668565b90600052602060002090601f01602090048101928261337457600085556133c2565b82601f1061338557805485556133c2565b828001600101855582156133c257600052602060002091601f016020900482015b828111156133c15782548255916001019190600101906133a6565b5b5090506133cf9190613459565b5090565b8280546133df90614668565b90600052602060002090601f0160209004810192826134015760008555613448565b82601f1061341a57805160ff1916838001178555613448565b82800160010185558215613448579182015b8281111561344757825182559160200191906001019061342c565b5b5090506134559190613459565b5090565b5b8082111561347257600081600090555060010161345a565b5090565b6000613489613484846143ac565b614387565b905080838252602082019050828560208602820111156134a857600080fd5b60005b858110156134d857816134be8882613645565b8452602084019350602083019250506001810190506134ab565b5050509392505050565b60006134f56134f0846143d8565b614387565b90508281526020810184848401111561350d57600080fd5b613518848285614626565b509392505050565b600061353361352e84614409565b614387565b90508281526020810184848401111561354b57600080fd5b613556848285614626565b509392505050565b60008135905061356d81614fdb565b92915050565b60008151905061358281614fdb565b92915050565b600082601f83011261359957600080fd5b81356135a9848260208601613476565b91505092915050565b6000813590506135c181614ff2565b92915050565b6000813590506135d681615009565b92915050565b6000815190506135eb81615009565b92915050565b600082601f83011261360257600080fd5b81356136128482602086016134e2565b91505092915050565b600082601f83011261362c57600080fd5b813561363c848260208601613520565b91505092915050565b60008135905061365481615020565b92915050565b60006020828403121561366c57600080fd5b600061367a8482850161355e565b91505092915050565b60006020828403121561369557600080fd5b60006136a384828501613573565b91505092915050565b600080604083850312156136bf57600080fd5b60006136cd8582860161355e565b92505060206136de8582860161355e565b9150509250929050565b6000806000606084860312156136fd57600080fd5b600061370b8682870161355e565b935050602061371c8682870161355e565b925050604061372d86828701613645565b9150509250925092565b6000806000806080858703121561374d57600080fd5b600061375b8782880161355e565b945050602061376c8782880161355e565b935050604061377d87828801613645565b925050606085013567ffffffffffffffff81111561379a57600080fd5b6137a6878288016135f1565b91505092959194509250565b600080604083850312156137c557600080fd5b60006137d38582860161355e565b92505060206137e4858286016135b2565b9150509250929050565b6000806040838503121561380157600080fd5b600061380f8582860161355e565b925050602061382085828601613645565b9150509250929050565b60006020828403121561383c57600080fd5b600082013567ffffffffffffffff81111561385657600080fd5b61386284828501613588565b91505092915050565b60006020828403121561387d57600080fd5b600061388b848285016135c7565b91505092915050565b6000602082840312156138a657600080fd5b60006138b4848285016135dc565b91505092915050565b6000602082840312156138cf57600080fd5b600082013567ffffffffffffffff8111156138e957600080fd5b6138f58482850161361b565b91505092915050565b60006020828403121561391057600080fd5b600061391e84828501613645565b91505092915050565b613930816145b2565b82525050565b61393f816145c4565b82525050565b60006139508261444f565b61395a8185614465565b935061396a818560208601614635565b61397381614801565b840191505092915050565b60006139898261445a565b6139938185614481565b93506139a3818560208601614635565b6139ac81614801565b840191505092915050565b60006139c28261445a565b6139cc8185614492565b93506139dc818560208601614635565b80840191505092915050565b600081546139f581614668565b6139ff8186614481565b94506001821660008114613a1a5760018114613a2c57613a5f565b60ff1983168652602086019350613a5f565b613a358561443a565b60005b83811015613a5757815481890152600182019150602081019050613a38565b808801955050505b50505092915050565b6000613a75602b83614481565b9150613a8082614812565b604082019050919050565b6000613a98602b83614481565b9150613aa382614861565b604082019050919050565b6000613abb603283614481565b9150613ac6826148b0565b604082019050919050565b6000613ade602683614481565b9150613ae9826148ff565b604082019050919050565b6000613b01602583614481565b9150613b0c8261494e565b604082019050919050565b6000613b24601c83614481565b9150613b2f8261499d565b602082019050919050565b6000613b47602c83614481565b9150613b52826149c6565b604082019050919050565b6000613b6a602283614481565b9150613b7582614a15565b604082019050919050565b6000613b8d602483614481565b9150613b9882614a64565b604082019050919050565b6000613bb0602483614481565b9150613bbb82614ab3565b604082019050919050565b6000613bd3601983614481565b9150613bde82614b02565b602082019050919050565b6000613bf6601483614481565b9150613c0182614b2b565b602082019050919050565b6000613c19602983614481565b9150613c2482614b54565b604082019050919050565b6000613c3c602783614481565b9150613c4782614ba3565b604082019050919050565b6000613c5f601f83614481565b9150613c6a82614bf2565b602082019050919050565b6000613c82603a83614481565b9150613c8d82614c1b565b604082019050919050565b6000613ca5601d83614481565b9150613cb082614c6a565b602082019050919050565b6000613cc8602983614481565b9150613cd382614c93565b604082019050919050565b6000613ceb603e83614481565b9150613cf682614ce2565b604082019050919050565b6000613d0e602083614481565b9150613d1982614d31565b602082019050919050565b6000613d31600583614492565b9150613d3c82614d5a565b600582019050919050565b6000613d54602083614481565b9150613d5f82614d83565b602082019050919050565b6000613d77602f83614481565b9150613d8282614dac565b604082019050919050565b6000613d9a601883614481565b9150613da582614dfb565b602082019050919050565b6000613dbd602183614481565b9150613dc882614e24565b604082019050919050565b6000613de0601b83614481565b9150613deb82614e73565b602082019050919050565b6000613e03600083614476565b9150613e0e82614e9c565b600082019050919050565b6000613e26602c83614481565b9150613e3182614e9f565b604082019050919050565b6000613e49602e83614481565b9150613e5482614eee565b604082019050919050565b6000613e6c603083614481565b9150613e7782614f3d565b604082019050919050565b6000613e8f602983614481565b9150613e9a82614f8c565b604082019050919050565b613eae8161461c565b82525050565b6000613ec082856139b7565b9150613ecc82846139b7565b9150613ed782613d24565b91508190509392505050565b6000613eee82613df6565b9150819050919050565b6000602082019050613f0d6000830184613927565b92915050565b6000608082019050613f286000830187613927565b613f356020830186613927565b613f426040830185613ea5565b8181036060830152613f548184613945565b905095945050505050565b6000602082019050613f746000830184613936565b92915050565b60006020820190508181036000830152613f94818461397e565b905092915050565b60006020820190508181036000830152613fb581613a68565b9050919050565b60006020820190508181036000830152613fd581613a8b565b9050919050565b60006020820190508181036000830152613ff581613aae565b9050919050565b6000602082019050818103600083015261401581613ad1565b9050919050565b6000602082019050818103600083015261403581613af4565b9050919050565b6000602082019050818103600083015261405581613b17565b9050919050565b6000602082019050818103600083015261407581613b3a565b9050919050565b6000602082019050818103600083015261409581613b5d565b9050919050565b600060208201905081810360008301526140b581613b80565b9050919050565b600060208201905081810360008301526140d581613ba3565b9050919050565b600060208201905081810360008301526140f581613bc6565b9050919050565b6000602082019050818103600083015261411581613be9565b9050919050565b6000602082019050818103600083015261413581613c0c565b9050919050565b6000602082019050818103600083015261415581613c2f565b9050919050565b6000602082019050818103600083015261417581613c52565b9050919050565b6000602082019050818103600083015261419581613c75565b9050919050565b600060208201905081810360008301526141b581613c98565b9050919050565b600060208201905081810360008301526141d581613cbb565b9050919050565b600060208201905081810360008301526141f581613cde565b9050919050565b6000602082019050818103600083015261421581613d01565b9050919050565b6000602082019050818103600083015261423581613d47565b9050919050565b6000602082019050818103600083015261425581613d6a565b9050919050565b6000602082019050818103600083015261427581613d8d565b9050919050565b6000602082019050818103600083015261429581613db0565b9050919050565b600060208201905081810360008301526142b581613dd3565b9050919050565b600060208201905081810360008301526142d581613e19565b9050919050565b600060208201905081810360008301526142f581613e3c565b9050919050565b6000602082019050818103600083015261431581613e5f565b9050919050565b6000602082019050818103600083015261433581613e82565b9050919050565b60006020820190506143516000830184613ea5565b92915050565b600060408201905061436c6000830185613ea5565b818103602083015261437e81846139e8565b90509392505050565b60006143916143a2565b905061439d828261469a565b919050565b6000604051905090565b600067ffffffffffffffff8211156143c7576143c66147d2565b5b602082029050602081019050919050565b600067ffffffffffffffff8211156143f3576143f26147d2565b5b6143fc82614801565b9050602081019050919050565b600067ffffffffffffffff821115614424576144236147d2565b5b61442d82614801565b9050602081019050919050565b60008190508160005260206000209050919050565b600081519050919050565b600081519050919050565b600082825260208201905092915050565b600081905092915050565b600082825260208201905092915050565b600081905092915050565b60006144a88261461c565b91506144b38361461c565b9250827fffffffffffffffffffffffffffffffffffffffffffffffffffffffffffffffff038211156144e8576144e7614745565b5b828201905092915050565b60006144fe8261461c565b91506145098361461c565b92508261451957614518614774565b5b828204905092915050565b600061452f8261461c565b915061453a8361461c565b9250817fffffffffffffffffffffffffffffffffffffffffffffffffffffffffffffffff048311821515161561457357614572614745565b5b828202905092915050565b60006145898261461c565b91506145948361461c565b9250828210156145a7576145a6614745565b5b828203905092915050565b60006145bd826145fc565b9050919050565b60008115159050919050565b60007fffffffff0000000000000000000000000000000000000000000000000000000082169050919050565b600073ffffffffffffffffffffffffffffffffffffffff82169050919050565b6000819050919050565b82818337600083830152505050565b60005b83811015614653578082015181840152602081019050614638565b83811115614662576000848401525b50505050565b6000600282049050600182168061468057607f821691505b60208210811415614694576146936147a3565b5b50919050565b6146a382614801565b810181811067ffffffffffffffff821117156146c2576146c16147d2565b5b80604052505050565b60006146d68261461c565b91507fffffffffffffffffffffffffffffffffffffffffffffffffffffffffffffffff82141561470957614708614745565b5b600182019050919050565b600061471f8261461c565b915061472a8361461c565b92508261473a57614739614774565b5b828206905092915050565b7f4e487b7100000000000000000000000000000000000000000000000000000000600052601160045260246000fd5b7f4e487b7100000000000000000000000000000000000000000000000000000000600052601260045260246000fd5b7f4e487b7100000000000000000000000000000000000000000000000000000000600052602260045260246000fd5b7f4e487b7100000000000000000000000000000000000000000000000000000000600052604160045260246000fd5b6000601f19601f8301169050919050565b7f417474656d707420746f206d696e742047656e20666f72206e6f6e206f776e6560008201527f642041726374757269756d000000000000000000000000000000000000000000602082015250565b7f455243373231456e756d657261626c653a206f776e657220696e646578206f7560008201527f74206f6620626f756e6473000000000000000000000000000000000000000000602082015250565b7f4552433732313a207472616e7366657220746f206e6f6e20455243373231526560008201527f63656976657220696d706c656d656e7465720000000000000000000000000000602082015250565b7f4f776e61626c653a206e6577206f776e657220697320746865207a65726f206160008201527f6464726573730000000000000000000000000000000000000000000000000000602082015250565b7f4552433732313a207472616e736665722066726f6d20696e636f72726563742060008201527f6f776e6572000000000000000000000000000000000000000000000000000000602082015250565b7f4552433732313a20746f6b656e20616c7265616479206d696e74656400000000600082015250565b7f42696f557067726164696e67206d7573742062652061637469766520746f206360008201527f68616e676520736561736f6e0000000000000000000000000000000000000000602082015250565b7f4d696e74696e67206d7573742062652061637469766520746f206d696e74204760008201527f656e000000000000000000000000000000000000000000000000000000000000602082015250565b7f4d696e7420776f756c6420657863656564206d617820737570706c79206f662060008201527f47656e3000000000000000000000000000000000000000000000000000000000602082015250565b7f4552433732313a207472616e7366657220746f20746865207a65726f2061646460008201527f7265737300000000000000000000000000000000000000000000000000000000602082015250565b7f4552433732313a20617070726f766520746f2063616c6c657200000000000000600082015250565b7f496e73756666696369656e742062616c616e6365000000000000000000000000600082015250565b7f4d696e74696e6720746f6f206d756368206174206f6e6365206973206e6f742060008201527f737570706f727465640000000000000000000000000000000000000000000000602082015250565b7f546f6b656e494420776f756c6420657863656564206d617820737570706c792060008201527f6f662047656e3000000000000000000000000000000000000000000000000000602082015250565b7f45746865722076616c75652073656e74206973206e6f7420636f727265637400600082015250565b7f416464726573733a20756e61626c6520746f2073656e642076616c75652c207260008201527f6563697069656e74206d61792068617665207265766572746564000000000000602082015250565b7f416464726573733a20696e73756666696369656e742062616c616e6365000000600082015250565b7f4552433732313a2061646472657373207a65726f206973206e6f74206120766160008201527f6c6964206f776e65720000000000000000000000000000000000000000000000602082015250565b7f4552433732313a20617070726f76652063616c6c6572206973206e6f7420746f60008201527f6b656e206f776e6572206e6f7220617070726f76656420666f7220616c6c0000602082015250565b7f4552433732313a206d696e7420746f20746865207a65726f2061646472657373600082015250565b7f2e6a736f6e000000000000000000000000000000000000000000000000000000600082015250565b7f4f776e61626c653a2063616c6c6572206973206e6f7420746865206f776e6572600082015250565b7f4552433732314d657461646174613a2055524920717565727920666f72206e6f60008201527f6e6578697374656e7420746f6b656e0000000000000000000000000000000000602082015250565b7f4552433732313a20696e76616c696420746f6b656e2049440000000000000000600082015250565b7f4552433732313a20617070726f76616c20746f2063757272656e74206f776e6560008201527f7200000000000000000000000000000000000000000000000000000000000000602082015250565b7f547279696e6720746f206d696e74206578697374696e672047656e0000000000600082015250565b50565b7f455243373231456e756d657261626c653a20676c6f62616c20696e646578206f60008201527f7574206f6620626f756e64730000000000000000000000000000000000000000602082015250565b7f4552433732313a2063616c6c6572206973206e6f7420746f6b656e206f776e6560008201527f72206e6f7220617070726f766564000000000000000000000000000000000000602082015250565b7f547279696e6720746f2042696f2055706772616465206e6f6e2065786973746960008201527f6e672f6e6f74206f776e65642047656e00000000000000000000000000000000602082015250565b7f5075626c6963204d696e74696e67206d7573742062652061637469766520746f60008201527f206d696e742047656e0000000000000000000000000000000000000000000000602082015250565b614fe4816145b2565b8114614fef57600080fd5b50565b614ffb816145c4565b811461500657600080fd5b50565b615012816145d0565b811461501d57600080fd5b50565b6150298161461c565b811461503457600080fd5b5056fea2646970667358221220d0ed9480e413a76a5c299a2fef53850123a6d56d23ee41d9780b5cff1e95173764736f6c63430008040033",
  "linkReferences": {},
  "deployedLinkReferences": {}
}